:02000002D0002C
:1040000000400D004C690D00000006000C00050189
:084010000401FD08000000009E
:04401800BC660D0075
:10401C0009480A49884208B505D0094A824202D0AB
:10402C00121A02F07FFA0748074A0021121A02F00E
:10403C0087FA014808BD00BF08E50320AC680D00F5
:10404C0080E5032080E50320EDE7032070B5074EE3
:10405C00074C01F05FFBA41BA4080025A54200D16E
:10406C0070BD56F8043B98470135F7E770680D00B2
:10407C0094680D0000F016B808B500F023F8BDE800
:10408C00084001F0FFBA00F017BB00F015BB00F0C0
:10409C001BBB0078B0FA80F0400970470123037015
:1040AC007047000008B5054B0221188801F0A2FBEF
:1040BC0001F038F9024B186008BD00BF08E5032079
:1040CC0084E5032010B5274B274C18888AB001F0E3
:1040DC00BBFB002841D101F025F92368C01A002848
:1040EC003BDC013B2148236000F0D6F8204C322009
:1040FC0084ED000B00F010FB94ED000B1D4B51EC0C
:10410C00100B00228DED020B02F02EF89DED020B30
:10411C0030B3062106A801F0B4F8174B069A1B78A9
:10412C008DF8003015493C2304A800F079FC059C5F
:10413C007CB16368013B63605BB9236820469B6874
:10414C009847A368013BA3601BB923682046DB6832
:10415C00984706A801F038F802E001F0E3F8206077
:10416C000AB010BD08E5032084E5032090E5032088
:10417C0088E503200000384080E50320D0660D0060
:10418C00044B054801221A70044B1A68044B196839
:10419C0000F008B880E5032090E503200CE503202F
:1041AC0010E50320D0B50B4F04460026C4E9026786
:1041BC00094F08460026C4E90021C4E9046701211F
:1041CC0080B201F017FB2088002101F013FB204680
:1041DC00D0BD00BF0000244000406F4010B58CB231
:1041EC002046012101F017FB0A2000F081F820463F
:1041FC000021BDE8104001F00EBB70B50D461C4609
:10420C00164600F085F8ADB20444284601F01CFBBC
:10421C00B04203D000F07CF88442F6D870BD0000A8
:10422C00F8B504464168FFF7D9FF216864230122E1
:10423C002046FFF7E2FF00F063F8642300222168B8
:10424C0005462046FFF7D9FF00F05AF8401B01F055
:10425C00A5FC0E4B002201F035FE0D4B002201F0A7
:10426C0007FD06460F4602460B46D4E9020101F053
:10427C008FFF30B9D4E9040132463B4601F06AFFA6
:10428C0008B1044F002647EC106BF8BD00003D4010
:10429C000000E03F0000F0BF38B5FFF7C1FF55EC60
:1042AC00104B094B10EE100A0022294601F048FF72
:1042BC0038B920462946054B002201F003FE04467E
:1042CC000D4645EC104B38BD0000F0BF000004401B
:1042DC0008B5024B1B685B6C019308BD48020300D8
:1042EC0008B5024B1B685B68019308BD18020300FC
:1042FC0008B5024B1B68DB68019308BD180203006C
:10430C0008B5024B1B681B69019308BD180203001A
:10431C0008B5024B1B685B69019308BD18020300CA
:10432C0008B5024B1B689B6D019308BD1802030076
:10433C0008B5024B1B685B6E019308BD18020300A5
:10434C0008B5024B1B689B68019308BD2C02030047
:10435C0008B5024B1B68DB68019308BD2C020300F7
:10436C0008B5024B1B681B69019308BD2C020300A6
:10437C0008B5024B1B685B69019308BD2C02030056
:10438C0008B5024B1B681B6A019308BD2802030089
:10439C0008B5024B1B685B6A019308BD2802030039
:1043AC0008B5024B1B689B6A019308BD28020300E9
:1043BC0008B5024B1B68DB6A019308BD2802030099
:1043CC0008B5024B1B681B6B019308BD2802030048
:1043DC0008B5024B1B685B6B019308BD28020300F8
:1043EC0008B5024B1B681B6C019308BD2802030027
:1043FC0008B5024B1B685B69019308BD640203009E
:10440C0008B5024B1B689B68019308BD680203004A
:10441C0008B5024B1B68DB68019308BD68020300FA
:10442C0008B5024B1B68DB69019308BD3002030021
:10443C0008B5024B1B681B6A019308BD30020300D0
:10444C0008B5024B1B681B68019308BD3C020300B6
:10445C0008B5024B1B68DB68019308BD3C020300E6
:10446C0008B5024B1B681B69019308BD3C02030095
:10447C0008B5024B1B685B69019308BD3C02030045
:10448C0008B5024B1B689B69019308BD3C020300F5
:10449C0008B5024B1B68DB69019308BD3C020300A5
:1044AC0008B5024B1B681B6A019308BD3C02030054
:1044BC0008B5024B1B689B6A019308BD3C020300C4
:1044CC0008B5024B1B681B68019308BD4C02030026
:1044DC0008B5024B1B681B69019308BD4C02030015
:1044EC0008B5024B1B685B69019308BD4C020300C5
:1044FC0008B5024B1B689B69019308BD4C02030075
:10450C0008B5024B1B68DB69019308BD4C02030024
:10451C0008B5024B1B681B6A019308BD4C020300D3
:10452C0008B5024B1B681B68019308BD20020300F1
:10453C0008B5024B1B685B68019308BD20020300A1
:10454C0008B5024B1B685B69019308BD2002030090
:10455C0008B5024B1B68DB6C019308BD20020300FD
:10456C0008B5024B1B685B6D019308BD200203006C
:10457C0008B5024B1B689B6D019308BD200203001C
:10458C0008B5034B1B68D3F88830019308BD0000B5
:10459C002002030008B5034B1B68D3F89430019339
:1045AC0008BD00002002030008B5024B1B689B6885
:1045BC00019308BD4402030008B5024B1B685B69FC
:1045CC00019308BD4402030008B5024B1B681B6A2B
:1045DC00019308BD4402030008B5024B1B681B6B1A
:1045EC00019308BD4402030008B5024B1B68DB6B4A
:1045FC00019308BD4402030008B5024B1B685B68BD
:10460C00019308BD4002030008B5024B1B689B6870
:10461C00019308BD4002030008B5024B1B68DB6820
:10462C00019308BD4002030008B5024B1B681B69CF
:10463C00019308BD4002030008B5024B1B685B697F
:10464C00019308BD4002030008B5024B1B689B692F
:10465C00019308BD4002030008B5024B1B68DB69DF
:10466C00019308BD4002030008B5024B1B681B6A8E
:10467C00019308BD4002030008B5024B1B681B6B7D
:10468C00019308BD4002030008B5024B1B685B6B2D
:10469C00019308BD4002030008B5024B1B681B6C5C
:1046AC00019308BD4002030008B5024B1B685B6C0C
:1046BC00019308BD4002030008B5024B1B681B6840
:1046CC00019308BD1C02030008B5024B1B685B6814
:1046DC00019308BD1C02030008B5024B1B689B68C4
:1046EC00019308BD1C02030008B5024B1B68DB6A72
:1046FC00019308BD1C02030008B5024B1B681B6B21
:10470C00019308BD1C02030008B5024B1B685B6CCF
:10471C00019308BD1C0203000021FFF711BF10B567
:10472C00836804460BB901F0E3F8C3689847A368A3
:10473C001BB1032221462046984720461021BDE894
:10474C00104001F0D1B810B5036804469B68984737
:10475C00A368013BA3602BB923682046DB68BDE846
:10476C001040184710BD0B68036013B15A68013232
:10477C005A60704710B50446006828B14368013B85
:10478C0043600BB9FFF7DFFF204610BD0248002342
:10479C000360FFF79DBD00BFA8E503207047002014
:1047AC00704710B51021044601F09EF8204610BD4C
:1047BC0008B5FFF7F6FF08BD10B58368044613B1C2
:1047CC00032201469847204610BD30B500224FF613
:1047DC009C74026084808D888C800C688580046059
:1047EC000A6030BD10B504460068FFF76DFF204627
:1047FC0010BD38B5C468F4B12378022B03D104F191
:10480C000C00FFF7EFFF656835B12846FFF7D4FFC2
:10481C001021284601F068F8A56835B12846FFF745
:10482C00CBFF1021284601F05FF820461421BDE88B
:10483C00384001F059B838BD73B50E46044656F8E9
:10484C00043B00930D4601A83146FFF78CFF019AFB
:10485C00009B6260236001A8002301930093FFF783
:10486C0089FF3046FFF786FF2846082101F03CF807
:10487C00204602B070BD13B50B460246D0E90001CC
:10488C006C4684E8030093E8030082E8030094E894
:10489C00030083E8030002B010BD826810B50AB9AA
:1048AC0001F026F8BDE81040C368184708B5006849
:1048BC0000F11001FFF7F1FF08BD826810B50AB9CD
:1048CC0001F016F8BDE81040C368184708B5006839
:1048DC0000F11001FFF7F1FF08BD000038B500230F
:1048EC000446036010200D46FFF7CDFB28B10123D1
:1048FC00C0E90133024B0360C5602060204638BD1F
:10490C00E8660D0038B5002383608B6804460D46BD
:10491C002BB102229847EB68E360AB68A36020469A
:10492C0038BD0000F0B589B004686846FFF74DFF4C
:10493C004FF00203D4E84F2F002A03D1C4E8413FC3
:10494C000029F7D125D104F10C0569462846FFF75B
:10495C003CFFBFF35B8F01236370002004F108035D
:10496C00BFF35B8F53E8006F43E80002002AF9D1D4
:10497C00BFF35B8F6EB1FFF7EBFD78B12946304684
:10498C00FFF78BFF3046FFF717FF1021304600F082
:10499C00ABFF6846FFF726FF09B0F0BD314602A811
:1049AC00FFF7B0FFE068B4F9105008B101F0F4FD66
:1049BC0006901020ADF81C50FFF765FB0546E8B1DA
:1049CC00002787601820FFF75EFB044688B101467C
:1049DC00876002A8FFF74FFF049BA268A360059BAA
:1049EC00049206A9E268E36004F110000592FFF757
:1049FC00ECFE084BEB60084B2C60AB6006A8FFF795
:104A0C00F1FE02A8FFF7D8FE002229460348FFF763
:104A1C00A7FDB7E7B9480D00514B0D002B470D0012
:104A2C002DE9F0478AB005469DF848900C4617468C
:104A3C009846FFF7C1FD07AE824638BB4FF62E7382
:104A4C00059005A93046ADF81830FFF7BEFE1420CE
:104A5C00FFF719FB044648B1022303700123C0E998
:104A6C0001AA437031460C30FFF7AFFE28462146B1
:104A7C0040F8044BFFF732FF3046FFF7B3FE05A8B2
:104A8C00FFF7B0FE28460AB0BDE8F0870C234FF0C4
:104A9C00000A1420CDE908AA0793FFF7F4FA01469F
:104AAC0028B1C0E901AA80F800A080F801A004A8F0
:104ABC000391FFF713FF224B08930820FFF7E3FA4B
:104ACC00824628B1039B40F8043B04A9FFF74BFE38
:104ADC0000965FFA89F3424639462046CDF824A069
:104AEC00FFF772FDB8B9039B5B7803F0FF0293B933
:104AFC004FF69C7305A903A80592ADF81830FFF783
:104B0C0011FF05A8FFF76EFE05A80999FFF794FEA3
:104B1C0006A8FFF72FFE039B059304A906A8FFF731
:104B2C0022FE059B069A2B606A60002306A806935A
:104B3C000593FFF71FFE04A8FFF71CFEA2E700BFBA
:104B4C00154C0D00022AF8B5054607D0032A18D0DB
:104B5C00012A01D10B6803600020F8BD18200E68F3
:104B6C00FFF791FA044650B13146FFF7CBFE30699E
:104B7C00B6F9147008B101F00FFD2061A7822C600A
:104B8C00EAE70468002CE7D004F11000FFF72AFED6
:104B9C002046FFF711FE1821204600F0A5FEDBE7AA
:104BAC0038B5002383608B6804460D462BB1022276
:104BBC009847EB68E360AB68A360204638BD022AD7
:104BCC0070B5044607D0032A12D0012A01D10B6814
:104BDC000360002070BD14200E68FFF754FA0546E0
:104BEC0020B13146FFF7DCFF337C2B742560F0E7F6
:104BFC000468002CEDD02046FFF7DEFD1421204682
:104C0C0000F072FEE5E70000F0B589B004460D46F1
:104C1C0001A81146FFF710FEA4B124B21DB128461D
:104C2C0001F0BAFC054601A803A90395ADF81040A4
:104C3C00FFF778FE03A8FFF7D5FD02A8FFF79AFD52
:104C4C0009B0F0BD019D0123D5E84F2F002A03D1F7
:104C5C00C5E8413F0029F7D1EFD12B73BFF35B8F30
:104C6C006B702B1DBFF35B8F53E8006F43E8004262
:104C7C00002AF9D1BFF35B8F002EDED02046FFF760
:104C8C0067FC074660B105F10C013046FFF715FED5
:104C9C003046FFF791FD1021304600F025FECCE7A1
:104CAC00314603A8FFF77CFF2B7B8DF81C301020BE
:104CBC00FFF7E9F90546D0B187601420FFF7E3F957
:104CCC00044678B18760014603A8FFF7D4FD059B25
:104CDC00A268A360069B0592E268E3609DF81C3015
:104CEC0006922374064BEB60064B2C60AB6003A85A
:104CFC00FFF762FD002229460348FFF731FCC7E7A6
:104D0C00D9480D00CB4B0D002B470D0000224068FD
:104D1C001146FFF7A9BC002240681146FFF7B4BC4E
:104D2C0040680022FFF7A8BC4068002281F0010116
:104D3C00FFF792BC002340681A461946FFF784BC63
:104D4C00002340681A461946FFF776BC00224068DB
:104D5C001146FFF769BC002240681146FFF754BCAE
:104D6C00406800220221FFF757BC002340681A4616
:104D7C00FFF742BC024B03225A60024A1A6070478A
:104D8C00ACE5032004670D007047F8B506461546E0
:104D9C000C468F18BC4206D0336814F8011B9B6874
:104DAC0030469847F6E72846F8BD007C0022FFF70E
:104DBC00E7BA007C0021FFF7EBBA007C0021FFF77B
:104DCC00EFBA007C0021FFF7F3BA007C0021FFF75B
:104DDC00F7BA10B51421044600F086FD204610BD2C
:104DEC0010B54FF47A73044608460021C4E9011348
:104DFC00034B236020741146FFF7F2FA204610BDD6
:104E0C0040670D00704710B51821044600F06CFD8A
:104E1C00204610BDF0B5037D062B8DB00E4600F17B
:104E2C0004074FF0000412D000F1080515F8011D1D
:104E3C000A22304600F03BF9AF42044419D0002C52
:104E4C00F4D02E21304600F02FF90444EEE72F2346
:104E5C006A4639460A208DF80040FFF7C9FA6846C1
:104E6C0001F0B7FB33680246DB6869463046984769
:104E7C00044620460DB0F0BD10B5054B044611227A
:104E8C0040F8043B002101F05BFB204610BD00BF45
:104E9C0068670D000346074A10B543F8042B01F16F
:104EAC00100251F8044B43F8044B9142F9D10A78A3
:104EBC001A7010BD68670D0010B59DF8084044EAE3
:104ECC00032343EA024242EA016104234160037571
:104EDC0010BD13B5CB7800938B784A780978FFF71F
:104EEC00EBFF02B010BD0000014B024A1A60704784
:104EFC00B4E5032074670D00002340681A46FFF7E1
:104F0C007BBB406800220221FFF786BB0022406871
:104F1C001146FFF779BB002240681146FFF784BBAE
:104F2C00002340681A461946FFF786BB00234068E9
:104F3C001A461946FFF788BB40680021FFF7ACBB47
:104F4C0040680021FFF7B0BB4068002281F00101EE
:104F5C00FFF782BB40680022FFF78EBB002240683F
:104F6C001146FFF791BB002240681146FFF77CBB4E
:104F7C002DE9F043002495B016460D460746FFF781
:104F8C007BFF214618220EA8009401F0D9FA402389
:104F9C00CDE90C3421466B460CAA3046FFF738FAA3
:104FAC000446002846D1024601216868FFF73CFB05
:104FBC000221804622466868FFF736FB009E814638
:104FCC002146002E36D0002934D17368022B03D031
:104FDC000A2B0BD0F669F4E7B8F1000F04D0716915
:104FEC0038460431FFF775FF4146F3E7B9F1000F7E
:104FFC0001D14946EEE77469102201A801F0A0FA2C
:10500C0006238DF8143001AD04F108031834186828
:10501C0059682A4603C20833A3421546F7D101A9A1
:10502C0006A807ADFFF736FF0FCD3C1D0FC42B684C
:10503C002370DEE70098FFF7E3F9384615B0BDE8BA
:10504C00F0830000024B034A1A6000225A6070473A
:10505C00B8E5032080670D00F8B506460D468F189D
:10506C000024BD420CD0336815F8011B9B683046F8
:10507C009847031E01DB1C44F3E7002C08BF1C46B9
:10508C002046F8BD13B50446084659B1019101F00C
:10509C00A0FA23680199DB680246204602B0BDE8FD
:1050AC001040184702B010BD03689B68184730B514
:1050BC008BB000238DF82430012A98BF0A2209AC4A
:1050CC000D46B1FBF2F101FB125303F0FF03092B68
:1050DC0094BF30333733DBB2AA4204F8013DEFD929
:1050EC002146FFF7CFFF0BB030BD0000014B002273
:1050FC009A607047C0E5032010B50446084621703D
:10510C00FFF78EF900236360204610BD2DE9F047B0
:10511C0057EC106B80460C4610EE100A0022002350
:10512C00394601F017F828B107F100431F462D232B
:10513C0004F8013B00234FF001090A22D9B288453B
:10514C0003D902FB09F90133F8E7484600F026FDC4
:10515C0032463B4600F08CFD06460F4601F05AF8ED
:10516C0005468A4600F04EFD02460B46304639464F
:10517C0000F0C6FB134B002201F000F810B1013512
:10518C004AF1000A4A462846D317514601F02AF83C
:10519C000123154621460A2200F027FAB8F1000F28
:1051AC000DD0204601F015FA2E23211823540A2283
:1051BC00434628460131BDE8F04700F016BABDE879
:1051CC00F08700BF0000E03F10B504460068FFF711
:1051DC007BFA204610BD10B50446006808B1FFF7F5
:1051EC0073FA0023C4E90133236010BD38B50446BB
:1051FC000D4600680131FFF76FFA10B1C4E90005E4
:10520C00012038BD10B50368044623B143688B42B6
:10521C0001D3012010BD2046FFF7E8FF0028F9D08C
:10522C00A368002BF5D122681370F2E737B50D4651
:10523C00114601920446FFF7E5FF019A28B9204672
:10524C00FFF7C9FF204603B030BDA2602946206895
:10525C0001F068F92268A3680021D154F2E713B574
:10526C00044659B10846019101F0B3F9019902467F
:10527C002046FFF7DBFF204602B010BDFFF7ABFF67
:10528C00F9E710B504468AB000230846C4E9003398
:10529C00A360237301A9C0B2FFF738FF01A9204610
:1052AC00FFF7DDFF20460AB010BD0000054B0222BF
:1052BC001A60054B054A9A60002018609880987116
:1052CC00FFF736B9DCE50320D0E503200000FFFF33
:1052DC0008B50020FFF780F928B1FFF76DF980F0D1
:1052EC000100C0B208BD0120FCE710B50020FFF79B
:1052FC0017F80446A0B9FFF713F9012810D120467E
:10530C00FFF736F960B9FFF7E3FF10B9FFF74CF977
:10531C00F9E7FFF7DDFFBDE810400020FFF700B80C
:10532C00204610BD1FB5FFF7E0FF10220021684694
:10533C0001F006F900216846FEF7FAFF009805B067
:10534C005DF804FB024B1A68024B1A60704700BFF1
:10535C0014E50320E0E50320704741747047704763
:10536C0008B5007CFFF7A4F820EAE07008BD08B58A
:10537C00007CFFF775F820EAE07008BD08B5007CEA
:10538C00FFF77EF840EAE07008BD08B5007CFFF737
:10539C006FF840EAE07008BD007CFFF779B837B5CC
:1053AC00457C04462DB1207C03B0BDE83040FFF7AE
:1053BC004FB8007C0191FFF77BF800280199F2DCD3
:1053CC00284603B030BD10B51421044600F08CFA09
:1053DC00204610BD10B54FF0000C0446084611468F
:1053EC004FF47A72C4E901C2044A2260012220748B
:1053FC0062741A46FFF724F8204610BDD8670D00DA
:10540C0013B50D4C2178BFF35B8F11F0010110D156
:10541C0020460191FEF73DFE019950B1074B084A19
:10542C000848FFF7D7FF2046FEF738FE064801F084
:10543C0073F8044802B010BDE4E503206CE60320C9
:10544C00E8E50320F0E603206B530D004174704730
:10545C007047704708B50021007CFFF749F840EA17
:10546C00E07008BD08B50121007CFFF741F840EA67
:10547C00E07008BD08B5007CFFF732F820EAE07058
:10548C0008BD08B5007CFFF723F820EAE07008BDE2
:10549C0013B50446007C0191FFF722F8002801990E
:1054AC0001DC607C20B1207CFFF72AF820EAE07058
:1054BC0002B010BD007CFFF72BB810B514210446C8
:1054CC0000F012FA204610BD10B54FF47A73044662
:1054DC0008460021C4E90113044B23600123207406
:1054EC0063741146FEF7ECFF204610BD08680D00F2
:1054FC0010B514220446002101F022F8204610BDFC
:10550C0010B50F4C88B003A8FFF7F2FF2178BFF35A
:10551C005B8F11F001010FD120460191FEF7B9FD0F
:10552C00019948B103AA0748FFF7CEFF2046FEF7C2
:10553C00B5FD054800F0F0FF024808B010BD00BFF3
:10554C0004E7032008E703205D540D0000224068A7
:10555C001146FFF769B8002240681146FFF784B87E
:10556C00002240681146FFF78FB840680022FFF711
:10557C0083B84068002281F00101FFF76DB8002369
:10558C0040681A461946FFF75FB8002340681A4670
:10559C001946FFF751B8002240681146FFF734B89E
:1055AC00406800220221FFF737B8002340681A46F2
:1055BC00FFF722B8024B04225A60024A1A60704765
:1055CC001CE7032038680D0010B5044601F001F803
:1055DC00013823182046834206D90278197800F83E
:1055EC00011B03F80129F6E710BD70B50C46911E9E
:1055FC002229054622D820466DB1B5FBF2F602FBF6
:10560C001655E9B2092D94BF30315731C9B200F8A3
:10561C00011B3546F0E7024623443021934202D960
:10562C0002F8011BFAE71A1A834238BF0022002342
:10563C0083542046FFF7C8FF204670BD0020FCE7CE
:10564C00014B1860704700BF18E5032008B50B4BE1
:10565C0043B1FFF755FF03681B699847002801DD2C
:10566C00AFF30080064B43B1FFF7CAFE03681B691A
:10567C009847002801DDAFF3008008BD0000000052
:10568C000000000008B5FFF7E1FFFEF741FE014BFB
:10569C00186008BD38E703200548064A064908B5D6
:1056AC00121A00F03FFF054B054A1A6008BD00BFF7
:1056BC0000F4032004F40320A8680D0000F4032078
:1056CC001E1C279A07B5002300931A466FF077012A
:1056DC00FEF760FF03B05DF804FB000007B54388DC
:1056EC000A2B08D0502B0BD1094B1B684BB103B0C4
:1056FC005DF804EB1847FFF7E5FF03B05DF804FB1A
:10570C00002300931A466FF07701FEF743FFF4E78E
:10571C0028E7032010B512480021FEF7F5FF114BC6
:10572C001A68114B9A42114B0CBF012200221A70BD
:10573C0001D0FFF7B1FFFEF7D3FD044600F008FFE0
:10574C000B4B13B12046AFF3008000210848FEF745
:10575C004BFFBDE8104007480021FEF711BF00BF0A
:10576C004D560D0000F403201E1C279A24E703203D
:10577C0000000000E9560D00232813B502D90020C3
:10578C0002B010BDA0F10B03022B1AD8174C2178D4
:10579C00BFF35B8F11F001010BD120460191FEF795
:1057AC0078FC019928B11248FFF7A6FC2046FEF7B9
:1057BC0075FC0F4B1878FEF73BFE0028DFD101205B
:1057CC00DEE7012809D800F06BF80021007CFEF719
:1057DC00FFFD80F00100C0B2D2E709380128EED8F5
:1057EC00FFF70EFE007CFEF75BFEF2E72CE70320D2
:1057FC0030E70320232838B504460D460AD8FF2984
:10580C0008D0FFF7B9FF28B129462046BDE838403B
:10581C00FEF796BD38BD38B504460D46FEF798FD2B
:10582C00FF2810D0062804D84D2323FA00F0C30714
:10583C0009D42046FFF7A0FF28B129462046BDE831
:10584C003840FEF78DBD38BD10B50446FEF780FD1F
:10585C00031FDBB2012B08D92046FFF78DFF20B1C7
:10586C002046BDE81040FEF783BD002010BD7047F8
:10587C0038B500232025438014230446038085601B
:10588C0005610649284600F031F804496060284655
:10589C0000F02CF8E060204638BD00BF6C680D00AD
:1058AC0030B50E4D2978BFF35B8F11F0010487B032
:1058BC0011D12846FEF7EDFB68B101A8FFF7D8FF20
:1058CC0001AA21460648FFF78BFA2846FEF7E6FBAD
:1058DC00044800F021FE024807B030BD3CE703202D
:1058EC0040E703207B580D00FEF7D1BBFEF7CDBB84
:1058FC0008B5FEF7F9FE000081F0004102E000BFA0
:10590C0083F0004330B54FEA41044FEA430594EA73
:10591C00050F08BF90EA020F1FBF54EA000C55EAAE
:10592C00020C7FEA645C7FEA655C00F0E2804FEA7F
:10593C005454D4EB5555B8BF6D420CDD2C4480EA61
:10594C00020281EA030382EA000083EA010180EA91
:10595C00020281EA0303362D88BF30BD11F0004FDF
:10596C004FEA01314FF4801C4CEA113102D0404215
:10597C0061EB410113F0004F4FEA03334CEA133350
:10598C0002D0524263EB430394EA050F00F0A78068
:10599C00A4F10104D5F1200E0DDB02FA0EFC22FA63
:1059AC0005F2801841F1000103FA0EF2801843FA57
:1059BC0005F359410EE0A5F120050EF1200E012A48
:1059CC0003FA0EFC28BF4CF0020C43FA05F3C01886
:1059DC0051EBE37101F0004507D54FF0000EDCF1FF
:1059EC00000C7EEB00006EEB0101B1F5801F1BD3A8
:1059FC00B1F5001F0CD349085FEA30004FEA3C0CAC
:105A0C0004F101044FEA445212F5800F80F09A80A1
:105A1C00BCF1004F08BF5FEA500C50F1000041EBA5
:105A2C00045141EA050130BD5FEA4C0C404141EBA9
:105A3C000101013C28BFB1F5801FE9D291F0000FA4
:105A4C0004BF01460020B1FA81F308BF2033A3F153
:105A5C000B03B3F120020CDA0C3208DD02F1140C4A
:105A6C00C2F10C0201FA0CF021FA02F10CE002F185
:105A7C001402D8BFC2F1200C01FA02F120FA0CFC7E
:105A8C00DCBF41EA0C019040E41AA2BF01EB0451C7
:105A9C00294330BD6FEA04041F3C1CDA0C340EDCC5
:105AAC0004F11404C4F1200220FA04F001FA02F308
:105ABC0040EA030021FA04F345EA030130BDC4F1C6
:105ACC000C04C4F1200220FA02F001FA04F340EABB
:105ADC000300294630BD21FA04F0294630BD94F06C
:105AEC00000F83F4801306BF81F480110134013D53
:105AFC004EE77FEA645C18BF7FEA655C29D094EAC4
:105B0C00050F08BF90EA020F05D054EA000C04BF41
:105B1C001946104630BD91EA030F1EBF002100202C
:105B2C0030BD5FEA545C05D14000494128BF41F0CB
:105B3C00004130BD14F580043CBF01F5801130BD2F
:105B4C0001F0004545F0FE4141F470014FF00000BA
:105B5C0030BD7FEA645C1ABF194610467FEA655C6B
:105B6C001CBF0B46024650EA013406BF52EA03350D
:105B7C0091EA030F41F4002130BD00BF90F0000FFB
:105B8C0004BF0021704730B54FF4806404F1320437
:105B9C004FF000054FF0000150E700BF90F0000FF0
:105BAC0004BF0021704730B54FF4806404F1320417
:105BBC0010F0004548BF40424FF000013EE700BFE7
:105BCC0042004FEAE2014FEA31014FEA02701FBF77
:105BDC0012F07F4393F07F4F81F06051704732F0A9
:105BEC007F4208BF704793F07F4F04BF41F4002100
:105BFC00704730B54FF4607401F0004521F000415E
:105C0C001CE700BF50EA010208BF704730B54FF0E7
:105C1C0000050AE050EA010208BF704730B511F0E8
:105C2C00004502D5404261EB41014FF4806404F120
:105C3C0032045FEA915C3FF4D8AE4FF003025FEAA6
:105C4C00DC0C18BF03325FEADC0C18BF033202EB2A
:105C5C00DC02C2F1200300FA03FC20FA02F001FA84
:105C6C0003FE40EA0E0021FA02F11444BDE600BF27
:105C7C0070B54FF0FF0C4CF4E06C1CEA11541DBFD6
:105C8C001CEA135594EA0C0F95EA0C0F00F0DEF8A1
:105C9C002C4481EA030621EA4C5123EA4C5350EA86
:105CAC00013518BF52EA033541F4801143F48013D7
:105CBC0038D0A0FB02CE4FF00005E1FB02E506F068
:105CCC000042E0FB03E54FF00006E1FB03569CF0BD
:105CDC00000F18BF4EF0010EA4F1FF04B6F5007FC3
:105CEC0064F5407404D25FEA4E0E6D4146EB060635
:105CFC0042EAC62141EA55514FEAC52040EA5E50BE
:105D0C004FEACE2EB4F1FD0C88BFBCF5E06F1ED867
:105D1C00BEF1004F08BF5FEA500E50F1000041EB9E
:105D2C00045170BD06F0004646EA010140EA02004B
:105D3C0081EA0301B4EB5C04C2BFD4EB0C0541EA6D
:105D4C00045170BD41F480114FF0000E013C00F382
:105D5C00AB8014F1360FDEBF002001F0004170BDA6
:105D6C00C4F10004203C35DA0C341BDC04F11404BF
:105D7C00C4F1200500FA05F320FA04F001FA05F24B
:105D8C0040EA020001F0004221F0004110EBD37018
:105D9C0021FA04F642EB06015EEA430E08BF20EA44
:105DAC00D37070BDC4F10C04C4F1200500FA04F3E7
:105DBC0020FA05F001FA04F240EA020001F0004179
:105DCC0010EBD37041F100015EEA430E08BF20EAEC
:105DDC00D37070BDC4F1200500FA05F24EEA020E34
:105DEC0020FA04F301FA05F243EA020321FA04F063
:105DFC0001F0004121FA04F220EA020000EBD3701A
:105E0C005EEA430E08BF20EAD37070BD94F0000F19
:105E1C000FD101F00046400041EB010111F4801F4D
:105E2C0008BF013CF7D041EA060195F0000F18BFFE
:105E3C00704703F00046520043EB030313F4801F3A
:105E4C0008BF013DF7D043EA0603704794EA0C0FF4
:105E5C000CEA135518BF95EA0C0F0CD050EA41060A
:105E6C0018BF52EA4306D1D181EA030101F0004187
:105E7C004FF0000070BD50EA410606BF10461946AF
:105E8C0052EA430619D094EA0C0F02D150EA0136BB
:105E9C0013D195EA0C0F05D152EA03361CBF1046FC
:105EAC0019460AD181EA030101F0004141F0FE419B
:105EBC0041F470014FF0000070BD41F0FE4141F41F
:105ECC00780170BD70B54FF0FF0C4CF4E06C1CEA1F
:105EDC0011541DBF1CEA135594EA0C0F95EA0C0FD4
:105EEC0000F0A7F8A4EB050481EA030E52EA03358F
:105EFC004FEA013100F088804FEA03334FF08055B0
:105F0C0045EA131343EA12634FEA022245EA1115DC
:105F1C0045EA10654FEA00260EF000419D4208BF8D
:105F2C00964244F1FD0404F5407402D25B084FEA3A
:105F3C003202B61A65EB03055B084FEA32024FF4E6
:105F4C0080104FF4002CB6EB020E75EB030E22BF43
:105F5C00B61A754640EA0C005B084FEA3202B6EB03
:105F6C00020E75EB030E22BFB61A754640EA5C00B2
:105F7C005B084FEA3202B6EB020E75EB030E22BF42
:105F8C00B61A754640EA9C005B084FEA3202B6EB43
:105F9C00020E75EB030E22BFB61A754640EADC0002
:105FAC0055EA060E18D04FEA051545EA16754FEA64
:105FBC0006164FEAC30343EA52734FEAC2025FEA82
:105FCC001C1CC0D111F4801F0BD141EA00014FF011
:105FDC0000004FF0004CB6E711F4801F04BF0143E2
:105FEC000020B4F1FD0C88BFBCF5E06F3FF6AFAEFE
:105FFC00B5EB030C04BFB6EB020C5FEA500C50F18E
:10600C00000041EB045170BD0EF0004E4EEA113110
:10601C0014EB5C04C2BFD4EB0C0541EA045170BD17
:10602C0041F480114FF0000E013C90E645EA060E5B
:10603C008DE60CEA135594EA0C0F08BF95EA0C0F89
:10604C003FF43BAF94EA0C0F0AD150EA01347FF4D1
:10605C0034AF95EA0C0F7FF425AF104619462CE7A8
:10606C0095EA0C0F06D152EA03353FF4FDAE10460B
:10607C00194622E750EA410618BF52EA43067FF45C
:10608C00C5AE50EA41047FF40DAF52EA43057FF4EC
:10609C00EBAE12E74FF0FF3C06E000BF4FF0010CF7
:1060AC0002E000BF4FF0010C4DF804CD4FEA410C5B
:1060BC007FEA6C5C4FEA430C18BF7FEA6C5C1BD028
:1060CC0001B050EA410C0CBF52EA430C91EA030FA9
:1060DC0002BF90EA020F0020704710F1000F91EA06
:1060EC00030F58BF994208BF90422CBFD8176FEAD4
:1060FC00E37040F0010070474FEA410C7FEA6C5CA2
:10610C0002D150EA013C07D14FEA430C7FEA6C5CA8
:10611C00D6D152EA033CD3D05DF8040B704700BFD4
:10612C008446104662468C461946634600E000BF22
:10613C0001B5FFF7B7FF002848BF10F1000F01BDF4
:10614C004DF808EDFFF7F4FF0CBF012000205DF8BF
:10615C0008FB00BF4DF808EDFFF7EAFF34BF012044
:10616C0000205DF808FB00BF4DF808EDFFF7E0FFDD
:10617C0094BF012000205DF808FB00BF4DF808ED2E
:10618C00FFF7CEFF94BF012000205DF808FB00BF95
:10619C004DF808EDFFF7C4FF34BF012000205DF877
:1061AC0008FB00BF4A0011D212F5001211D20DD516
:1061BC006FF47873B3EB62520ED44FEAC12343F001
:1061CC00004343EA505323FA02F070474FF00000AB
:1061DC00704750EA013002D14FF0FF3070474FF05A
:1061EC000000704753B94AB9002908BF00281CBFEA
:1061FC004FF0FF314FF0FF3000F08CB9ADF1080CCF
:10620C006DE904CE00F024F8DDF804E0DDE90223AA
:10621C0004B07047D0B50C4B002206460F46FFF772
:10622C0027FDFFF7BFFF0446FFF7A8FC074B002232
:10623C00FFF71EFD02460B4630463946FFF760FB62
:10624C00FFF7B0FF2146D0BD0000F03D0000F0414B
:10625C002DE9F047089D04468C46002B40F08380C6
:10626C008A42174647D9B2FA82F242B1C2F12000F3
:10627C0024FA00F09140974040EA010C94404FEA18
:10628C001748230CBCFBF8F61FFA87FE08FB16C157
:10629C0043EA014306FB0EF1994209D9FB1806F1BA
:1062AC00FF3080F01981994240F21681023E3B4446
:1062BC005B1AA4B2B3FBF8F008FB103344EA0344B6
:1062CC0000FB0EFEA64509D93C1900F1FF3380F006
:1062DC000581A64540F2028102383C4440EA064062
:1062EC00A4EB0E0400261DB1D4400023C5E90043E5
:1062FC003146BDE8F08702B9FFDEB2FA82F2002A1D
:10630C0050D1CB1B4FEA174E1FFA87F80126B3FB6F
:10631C00FEFC210C0EFB1C3341EA034108FB0CF381
:10632C008B4207D979180CF1FF3002D28B4200F264
:10633C00E9808446C91AA3B2B1FBFEF00EFB101122
:10634C0043EA014408FB00F8A04507D93C1900F1C9
:10635C00FF3302D2A04500F2D9801846A4EB080402
:10636C0040EA0C40BFE78B4209D9002D00F0B18008
:10637C000026C5E9000130463146BDE8F087B3FA86
:10638C0083F6002E4AD18B4202D3824200F2B880AF
:10639C00841A61EB030101208C46002DA8D0C5E9BD
:1063AC00004CA5E7C2F1200320FA03F6974001FA4E
:1063BC0002F04FEA174ED9403043030CB1FBFEF606
:1063CC001FFA87F80EFB161143EA014306FB08F18E
:1063DC00994204FA02F409D9FB1806F1FF3C80F04B
:1063EC008D80994240F28A80023E3B445B1A81B216
:1063FC00B3FBFEF00EFB103341EA034100FB08F344
:10640C008B4207D9791800F1FF3C73D28B4271D9BA
:10641C0002383944CB1A40EA064678E7C6F1200C1C
:10642C0003FA06F422FA0CF31C4320FA0CF701FAD7
:10643C0006F34FEA144E21FA0CF11F433B0CB1FB4F
:10644C00FEF91FFA84F80EFB191143EA014109FB0E
:10645C0008FA8A4502FA06F200FA06F308D961181E
:10646C0009F1FF3048D28A4546D9A9F102092144E5
:10647C00A1EB0A01BFB2B1FBFEF00EFB101147EA13
:10648C00014700FB08F8B84507D9E71900F1FF31BF
:10649C002ED2B8452CD90238274440EA0940A7EB44
:1064AC000807A0FB02894F45C64649461AD317D0A8
:1064BC005DB1B3EB0E0267EB010707FA0CFCF2407F
:1064CC004CEA0202F740C5E9002700263146BDE838
:1064DC00F0872E4628460BE70646E9E61846FDE609
:1064EC004345E5D2B8EB020E69EB04010138DFE756
:1064FC000846D2E760468DE78146B9E7664675E700
:10650C0030464AE7ACF1020C394413E702383C44FC
:10651C0024E700BF704700BF002301461A46184607
:10652C0000F060B80A44914200F1FF3300D170478B
:10653C0010B511F8014B03F8014F9142F9D110BD80
:10654C0002440346934200D1704703F8011BF9E75C
:10655C0038B50D4B1D68AB6B04467BB91820FEF7A4
:10656C00ABF80A4A0A4BA863C0E90023094B8360C5
:10657C000B23838101220023C0E90423AB6B00228F
:10658C001C615A6138BD00BF18E503200E33CDAB3A
:10659C0034126DE6ECDE0500024B0146186800F083
:1065AC0003B800BF18E5032037B5044608460D466E
:1065BC0000F00FF8421C114620460192FEF79CF8A1
:1065CC00044618B1019A2946FFF7ACFF204603B0E8
:1065DC0030BD034613F8012B002AFBD1181A0138E1
:1065EC00704700002DE9F843DFF8B8800646D8F86C
:1065FC0000001F460D46914600F056F8254B1C68CE
:10660C0034B9254C1C60254B13B11B68C4F8883079
:10661C0063681F2B07DDD8F8000000F047F84FF037
:10662C00FF30BDE8F8834EB3D4F8880088B91C4B12
:10663C0023B9D8F8000000F038F8F0E74FF4847074
:10664C00FEF73AF80028F4D00023C0E94033C4F830
:10665C008800636840F8239001229A4000EB830184
:10666C00D0F800311343022EC0F80031C1F880700D
:10667C0002BFD0F804311A43C0F804216368D8F87B
:10668C0000005A1C0233626044F8235000F00EF8EC
:10669C000020C6E7E0E7032054E7032000000000D9
:1066AC00C5460D007CE5032070477047704700001D
:1066BC001D400D0059400D0081400D0085400D001E
:1066CC0000000000436C6F73655F436F6E74616311
:1066DC00740000000000000000000000A9470D003D
:1066EC00AF470D00FF470D00BD470D00AB470D0038
:1066FC000000000000000000774D0D006D4D0D00F6
:10670C00634D0D00594D0D004D4D0D00414D0D00CB
:10671C00454F0D004D4F0D00354D0D002D4D0D000D
:10672C00234D0D00194D0D007D4F0D000000000094
:10673C0000000000954D0D00DF4D0D00B74D0D0014
:10674C00974D0D00BF4D0D00C74D0D00CF4D0D00E9
:10675C00D74D0D000000000000000000214E0D0080
:10676C00114E0D00134E0D00617070000000000002
:10677C0000000000054F0D000F4F0D00194F0D00CC
:10678C00234F0D002D4F0D00394F0D00454F0D00BF
:10679C004D4F0D00554F0D00614F0D00694F0D0011
:1067AC00734F0D007D4F0D0025592D256D2D256442
:1067BC005425483A254D3A2553257A006173637464
:1067CC00696D6500000000000000000065530D00BD
:1067DC00D3530D00AB530D0065500D007B530D00D2
:1067EC0097530D0089530D00A5530D0067530D00F1
:1067FC006D530D0000000000000000005F540D0000
:10680C00C7540D009D540D0065500D008F540D00A4
:10681C0061540D0071540D00C1540D0081540D00D4
:10682C0059540D000000000000000000B7550D0089
:10683C00AD550D00A3550D0059550D0097550D0084
:10684C008B550D00454F0D004D4F0D007F550D0024
:10685C0077550D006D550D0063550D007D4F0D00E6
:10686C00000000008D410D0099470D00814D0D0079
:10687C00F54E0D0051500D00F9500D00B9520D00A0
:10688C0051530D00C1550D00000000000000000028
:04689C0000000000F8
:0868A000BCF9FF7F01000000BC
:0468A80000000000EC
:1068AC00030000000500000004000000C8670D0094
:1068BC001CE50320000000000000000000000000A8
:1068CC0000000000000000000000000000000000BC
:1068DC0000000000000000000000000000000000AC
:1068EC00000000000000000000000000000000009C
:1068FC00000000000000000000000000000000008C
:10690C00000000000000000000000000000000007B
:08691C0000000000E5E7032084
:10692400FFFFFFFF00000102030405060708090A30
:106934000B0C0D0E0F101112131415161718191A2B
:086944001B1C1D1E1F20280072
:04694C007856341233
:04000003D000401CCD
:00000001FF
