:02000002D0002C
:1040000000400D0040720D00000006000C0005018C
:084010000401FD08000000009E
:0440180008650D002A
:10401C0009480A49884208B505D0094A824202D0AB
:10402C00121A02F0C3F90748074A0021121A02F0CB
:10403C00CBF9014808BD00BFDCE40320A4710D00DE
:10404C0050E5032050E50320EDE7032070B5074E43
:10405C00074C02F0B7F8A41BA4080025A54200D118
:10406C0070BD56F8043B98470135F7E774710D00A5
:10407C0098710D0000F01EB808B500F047F8BDE8C7
:10408C00084002F057B801F079BB01F07FBB00008B
:10409C0008B5034A00210C2001F0B4FAFEE700BF7A
:1040AC0041530D000078B0FA80F0400970470123AD
:1040BC000370704713B501F0B7FF114C4FF4165154
:1040CC0001F0A6FF012300933C220221204600F0C0
:1040DC0029FE204601F084F84FF47A7001F06EFB53
:1040EC00204600F011FE204601F07AF801F0AAFEFD
:1040FC00044B186001F0A6FE034B186002B010BD13
:10410C0058E5032050E5032054E5032038B5234C33
:10411C00234D208802F0F0F868B9288802F0ECF8FA
:10412C0048B101F08FFE1F4A1368C01A002812DC38
:10413C00013B13600FE0288802F0DEF860B12088A4
:10414C00184C02F0D9F880B101F07CFE206001F02F
:10415C0079FE154B186038BD208802F0CDF8002888
:10416C00EDD001F06FFE104ADEE7288802F0C4F8AB
:10417C000028E9D101F066FE2368C01A0028EADCA9
:10418C0001F060FE08490B68C01A0028E3DC2268C5
:10419C00013B013A22600B60DDE700BFDCE4032049
:1041AC00E0E4032050E5032054E503201FB502F0A2
:1041BC00CFF8084A0849CDE901214FF0FF320346F8
:1041CC00009280212022054800F0ACFC05B05DF87F
:1041DC0004FB00BF801A0600A086010058E50320EE
:1041EC002DE9F04F85B01F46BDF93880BDF83C3045
:1041FC00A8EB0209A7EB010AB9F1000FB8BFC9F18E
:10420C000009BAF1000FB8BFCAF1000AD1458346C4
:10421C000C46154604DD3A462C4647460D4690465C
:10422C00BC4205DD2A464546904622463C4617468A
:10423C003E1BB2B20092A8EB0502002AB8BF524254
:10424C000192C6F3C03202FA86F64545B4BF01228C
:10425C004FF0FF3276100292BC421CDCDBF80020DF
:10426C000393D145D2F81880C7BF294622462A4667
:10427C0021465846C047019A039BB61AB1B236B2D2
:10428C00002E05DA029A1544009A56182DB236B251
:10429C00013424B2E0E705B0BDE8F08F704710B4EC
:1042AC0004682469A4465DF8044B604730B4046884
:1042BC00BDF808500295A46BA44630BC604730B4DE
:1042CC000468BDF808500295E46BA44630BC604706
:1042DC0070B4BDF90C50BDF810600468CDE90356FC
:1042EC00246CA44670BC60472DE9F3411C4603685E
:1042FC00BDF820805B6905461646013C34440F46E8
:10430C0024B298472B68CDF8048000949C6A284608
:10431C003B4632463946A0472B68DB6A284602B03A
:10432C00BDE8F04118472DE9F3411D460368BDF87F
:10433C0020805B69044617460E469847CDE9007805
:10434C0022686B1E3344956A20461BB23A463146AE
:10435C00A8472368DB6A204602B0BDE8F041184745
:10436C002DE9F3471E460368BDF928905B69BDF83B
:10437C002C800C460546174698472644B4422B68B9
:10438C000BDACDF80080D3F820A021464B463A46F4
:10439C0028460134D04724B2F0E7DB6A284602B045
:1043AC00BDE8F047184713B502680191B0F90E103B
:1043BC000091146CB0F90C3000221146A04702B0E9
:1043CC0010BD2DE9F3471D460368BDF82C805B69D1
:1043DC00BDF9289004460F46164698472368CDF839
:1043EC000080D3F824A032462B4639462046D047CD
:1043FC002368CDF8008009F1FF323244D3F824A0B1
:10440C0039462B46204612B2D0472368CDF800809F
:10441C00D3F820A032464B4639462046D0476B1E77
:10442C00D9192368CDF800801D6A20464B463246C8
:10443C0009B2A8472368DB6A204602B0BDE8F04702
:10444C00184770472DE9F74399421646BDF9287075
:10445C00BDF82C90026880460D461C4613D1BE4216
:10446C00C8BF3346CDF82890C4BF3E461F467B1CC0
:10447C00946B9B1B1BB2324629464046A44603B0A4
:10448C00BDE8F0436047BE420AD19942C2BF0B4619
:10449C0025461C46631CCDF82890D46B5B1BE9E7C2
:1044AC0053699847CDE90079D8F8003040469F6AA7
:1044BC00324623462946B847D8F80030DB6A4046D6
:1044CC0003B0BDE8F043184701F00303B0F90A202C
:1044DC008376C907B0F9083059BF8381C2818281C4
:1044EC00C381704730B54281C281074A074D0181B3
:1044FC00002481814FF0FF31C0E905124460056052
:10450C0004610477046230BD01010001246A0D00CE
:10451C002DE9F04F89B0CDE902120268BDF948804F
:10452C000493BDF94C3052690593BDF850A0044674
:10453C00904718F107024FF0000648BF08F10E0231
:10454C004FEAE20B01963546039B019ABDF9041024
:10455C009A18059B8B4212B227DD049B33444FF013
:10456C00000906930FFA89F080451FFA89F117DDCF
:10457C004F0705BF069BC0106D001D5C18BFEDB248
:10458C002B060AD5029B206807921944836909B24D
:10459C001F4620465346B847079A09F10109E1E73F
:1045AC00019B013301935E44CEE72368DB6A20460E
:1045BC0009B0BDE8F04F18472DE9F04F2DED028BF7
:1045CC0091B01646026ABDF874809DF878509DF83B
:1045DC007C4003911F46BDF8703004938346002A3B
:1045EC0040F0C580B0F90C308B4240F34C81B0F9EF
:1045FC000E30B34240F34781062313FB0513002B07
:10460C0040F3418106EBC403002B40F33C81037F54
:10461C001BB9AF2F84BF0137FFB2DBF8003058460F
:10462C005B6998470522099200220592984A07EB8C
:10463C008703D3180C93B3B20693059A0C9B9B5C1F
:10464C000793ABB20B93BDF80C300893039B02FBA2
:10465C0005F919FA83F90FFA89F308EE103A0823D1
:10466C000A93039B02EB030A4FF000090FFA8AFA34
:10467C00079ADBF80030D20752D5012D1FFA89F2C8
:10468C003ED1012C3CD19B6906991F46049B0A44E0
:10469C0012B251465846B84709F101034FFA83F953
:1046AC00079B5B0807930A9B013B13F0FF030A93DC
:1046BC00DED1059F01377BB20593099B013B13F0BB
:1046CC00FF030993B9D1049B43450FD0012DDBF8AF
:1046DC0000303BD1012C39D10899CDF8008005313F
:1046EC001C6A3246082309B25846A047DBF8003052
:1046FC00DB6A584611B0BDEC028BBDE8F04F184791
:10470C00069914FB02F20A44049901910094DB69A6
:10471C0018EE101A1F4612B22B465846B847BBE784
:10472C00049A4245B8D0012D1FFA89F207D1012C09
:10473C0005D19B6906991F460A444346A8E706998A
:10474C00CDF8048014FB02F20A44DFE70B9ACDF893
:10475C00048002EB8201089AE4000A44114600949A
:10476C00DC6932462B4609B25846A047BEE7137A9D
:10477C00516812680D92FF1AFFB201EBC70331F8B2
:10478C00372006929A780992DA780B92012D93F9D8
:10479C00052093F906A00A9201D8012C57D9BDF92E
:1047AC00283008930FFA8AF30793DBF80030584649
:1047BC005B699847B3B24FF000080E931AFA86F370
:1047CC00C14647460F930B9B9F428FD2079B0E9A75
:1047DC003B4403FB0423002205920F9A1BB202EB0D
:1047EC00070A08EE103A0FFA8AFA4346099A059915
:1047FC00914241D25A1CD2B25B070C9207D1069B54
:10480C0006990D9A01339BB212F80190069319F098
:10481C00800F12D0012DDBF80030BDF80C101AD12E
:10482C00012C18D10A9A9B691144059A11441E4611
:10483C005246049B09B25846B047059E0136F3B266
:10484C004FEA490905935FFA89F90C9BCEE70023DF
:10485C00CDE90733A9E70598089A024402FB051134
:10486C00049ACDE90042DB6918EE102A1E4609B203
:10487C002B465846B047E0E7099B013798445FFA4E
:10488C0088F8FFB29FE711B0BDEC028BBDE8F08F4A
:10489C001C650D00F0B5026A85B004460B46002A73
:1048AC0034D10A2908D1438A0282427E03EBC20327
:1048BC006382012005B0F0BD0D29FAD0E17E007EA7
:1048CC00657E71B1B4F91060062111FB0061B4F979
:1048DC000C60B142C1BFB4F91210228201EBC502C7
:1048EC006282E28A0192A28A0092CDE90205B4F9B1
:1048FC001220B4F910102046FFF75EFE237E228AA8
:10490C0003EB430302EB43032382D2E70A2907D1CB
:10491C0000230382937A417E428A01FB0323C7E77B
:10492C000D29C6D0157AA942C3D3517A9942C0D366
:10493C0051685D1BEDB201EBC505AF782FB3E9787B
:10494C0019B3E17E007E667E91B195F9051039446C
:10495C00B4F9107000FB0171B4F90C70B94207DDA9
:10496C0000272782B4F91210927A02FB0612628297
:10497C00E28A0192A28A0092CDE90206B4F91220D1
:10498C00B4F910102046FFF717FE2979237E228AEE
:10499C0001FB0323B8E7704710B51021044601F062
:1049AC00FBFC204610BD0EB403B503AB002153F83D
:1049BC00042B019301F025F902B05DF804EB03B070
:1049CC007047000073B5044608462279A36832B1DB
:1049DC00A3B90B4902B0BDE8704001F0E1B8094A37
:1049EC00267B094D0949647B012E18BF2946CDE968
:1049FC0000140749FFF7D7FF02B070BD054AEFE777
:104A0C00856A0D007C6A0D00816A0D007D6A0D00BF
:104A1C009B6A0D00746A0D0010B5044B03600446CC
:104A2C00C06A08B100F0B2FE204610BD746F0D00D4
:104A3C0010B50446FFF7F0FF2046502101F0ACFC06
:104A4C00204610BD002910B54BDBB0F90C408C4250
:104A5C0047DD002A45DBB0F90E40944241DD847EEF
:104A6C00022C1FD0032C26D0012C04D10489D24354
:104A7C0014440A4621B2012B23D0022B32D083BB23
:104A8C00002A13460489C06AB8BFD31DDB1013FB80
:104A9C00041102F0070201239340425C22EA030254
:104AAC0042541EE00489C94321444489D243224420
:104ABC0009B212B2DFE74489C9430C44114622B251
:104ACC00D9E7002A04891346B8BFD31DDB1013FBAA
:104ADC000411C36A02F0070001228240585C0243B1
:104AEC005A5410BD002A13460489C06AB8BFD31D9E
:104AFC00DB1013FB041102F00702012303FA02F28C
:104B0C00435C5A40CCE710B5044690F936000121BD
:104B1C0080B201F0D8FB606A18B1BDE8104001F01A
:104B2C00C8B810BD70B504461D460026FFF7DAFC68
:104B3C00114B2360666215B901F00AFC0546FF2390
:104B4C0084F8333084F836309DF9103084F83730DF
:104B5C000A4BA363012384F83C30059BA3644FF6F6
:104B6C00FF72069BA286C4E90A562664A4F8446028
:104B7C00E364204670BD00BF746F0D00C06A0D0069
:104B8C00F8B50446806A0D4690B194F9301000F0E7
:104B9C00ABFEA06A036800219B689847A06A036873
:104BAC0029469B689847A06ABDE8F84000F0A3BE70
:104BBC0094F93530014698B201F085FB606A20B15A
:104BCC002946BDE8F84001F0FBB80826802794F987
:104BDC00330005EA070180B201F075FB94F934004B
:104BEC00012180B201F06FFB94F93400002180B2F6
:104BFC0001F069FB013E4FEA5707E8D1F8BD38B523
:104C0C000446806A0D4680B1A16C00F05FFE002D59
:104C1C00204614BFA721A621FFF7B2FFA06A88B1D6
:104C2C00E16CBDE8384000F051BE606A18B104F187
:104C3C00380101F057F894F93600002180B201F0E8
:104C4C0042FBE4E72046BDE83840FFF75CBF2DE9A6
:104C5C00F8430446806A0D468F1840B394F930101F
:104C6C0000F042FEA06A036800219B689847012669
:104C7C00BD42A06A17D01F2E0CD900F03CFE94F94F
:104C8C003010A06A00F030FEA06A036800219B6817
:104C9C0098470126A06A15F8011B036801369B682A
:104CAC009847F6B2E4E7BDE8F84300F024BE94F967
:104CBC003530014698B201F006FBAF4222D0606A53
:104CCC0015F8019B18B1494601F07AF8F5E708266A
:104CDC004FF0800894F9330009EA080180B201F022
:104CEC00F2FA94F93400012180B201F0ECFA94F953
:104CFC003400002180B201F0E6FA013E4FEA580878
:104D0C00E8D1DAE7BDE8F883B0F90A30DA1D48BF1C
:104D1C0003F10E02B0F90830C06AD2105A430021D8
:104D2C0001F052BB2DE9FF411E46C36A9DF8288055
:104D3C0004460F461546B3B12046FFF7E5FFB4F91C
:104D4C000A00B4F9081020281FDC20230122CDE929
:104D5C000132203873237339009300EBD070894BE8
:104D6C0001EBD1711FE0B0F90A30D81D48BF03F137
:104D7C000E00B4F90830C010584300F0FFFCE0629C
:104D8C000028D9D104B0BDE8F08140234FF0010CCC
:104D9C00CDE9013C52234038523900937A4B00EB59
:104DAC00D07001EBD17140F34F0241F34F0120461B
:104DBC00FFF7AEFBA06A84F83170002878D0002D84
:104DCC0074D1B4F90A30202B0CBF3C253D2584F856
:104DDC003050B8F1000F01D000F07CFDFEB194F919
:104DEC00370000281BDB012180B201F05BFA94F93B
:104DFC003700012180B201F066FA012000F0DEFCE0
:104E0C0094F93700002180B201F05DFA0A2000F01D
:104E1C00D5FC94F93700012180B201F054FAA06A54
:104E2C00002874D0A16C00F051FD04225749204693
:104E3C00FFF70DFFA17A0139C9B22046FFF7A0FE9A
:104E4C00534904222046FFF702FF94F93130012B1D
:104E5C000CBF102114212046FFF792FE04224D496D
:104E6C002046FFF7F4FEA3684B4A93425CD14B49B2
:104E7C0004222046FFF7EBFED9212046FFF780FEE7
:104E8C0094F93130012B0CBF2221F1212046FFF780
:104E9C0077FE204642490622FFF7D9FEA06A002879
:104EAC0063D0E16C00F012FD01206BE76DB28EE770
:104EBC0094F93500012180B201F0F4F994F936002F
:104ECC00012180B201F0EEF994F93600012180B293
:104EDC0001F0F9F9656A3DB1B8F1000F3FF47EAF0E
:104EEC00284600F0D5FE79E794F93300012180B211
:104EFC0001F0D8F994F93400012180B201F0D2F913
:104F0C0094F93400294680B201F0DDF966E7606A55
:104F1C0018B104F1380100F0E5FE94F936000021D7
:104F2C0080B201F0D0F980E71E4A93420ED11E499F
:104F3C0003222046FFF78BFE94F93130012B0CBF76
:104F4C009F21CF212046FFF71BFE95E7174A93427E
:104F5C0092D1174903222046FFF779FE94F931309C
:104F6C00012B0CBF1021AF21ECE794F93600012185
:104F7C0080B201F0A8F9606A002895D000F099FE83
:104F8C0092E700BF8C6D0D00CC6A0D00D46F0D0044
:104F9C00D86F0D00DC6F0D0080002000E66F0D0057
:104FAC00E06F0D0080004000EA6F0D006000100003
:104FBC00ED6F0D0070B5002ABDF810503DDBB0F957
:104FCC000A40944239DD0029BEBF5B181BB2002198
:104FDC00B0F90840CE18A642C4BF631A1BB2002B0E
:104FEC002BDDC06AD61014FB0611014402F0070039
:104FFC0001228240012DD2B216D0022D0BD0E5B980
:10500C00D243D2B20B44994217D011F8010B104085
:10501C0001F8010CF7E70B4499420ED011F8010B83
:10502C00504001F8010CF7E70B44994205D011F8F8
:10503C00010B104301F8010CF7E770BDF0B5002926
:10504C00BDF8146076DBB0F90850A94272DA002A78
:10505C00BCBFD21813B2B0F90A40B8BF0022D7189F
:10506C00A742C4BFA31A1BB2002B63DDC2F3C40456
:10507C00C76A15FB041112F00702DBB207EB01043F
:10508C0023D0C2F10802D2B22C4D93423CBF4FF058
:10509C00FF0CA2EB030EAD5C3CBF4CFA0EFC0CEA11
:1050AC000505012E07D0022E2ED04EB917F801C0DF
:1050BC002CEA050503E017F801C045EA0C057D5400
:1050CC00934237D3B0F908100C449A1AD2B2072A7B
:1050DC000ED9022E1DD113462178C9432170083BED
:1050EC00B0F90810DBB2072B0C44F5D802F007021C
:1050FC0002B3134B012E9B5C19D0022E1BD0CEB9E0
:10510C00227822EA030314E017F801C085EA0C05A3
:10511C00D5E7002E14BFFF25002513462570083B4C
:10512C00B0F90810DBB2072B0C44F7D8DEE7227875
:10513C0013432370F0BD22785340FAE7C46F0D007F
:10514C00CC6F0D0070B41446827EBDF80C60022A40
:10515C000DD0032A18D0012A11D10289E44314443A
:10516C0024B203960A46214670BCFFF767BF4289FA
:10517C000589E44319441444691A24B209B203960C
:10518C00224670BCFFF716BF45891944691A09B24B
:10519C00E7E730B41446827EBDF80850022A0DD0E1
:1051AC00032A18D0012A11D1E2180489A41A24B2B6
:1051BC0002950A46214630BCFFF7FCBE0289C94362
:1051CC001144E2184489A41A09B224B20295224669
:1051DC0030BCFFF733BF4289C943114409B2E7E73A
:1051EC002DE9F8430446806A002842D0A16C00F0F7
:1051FC006DFB474905222046FFF729FD217A01392D
:10520C002046C9B2FFF7BCFCB4F90A30DE1D48BF1A
:10521C0003F10E06D4E90A052389F61013FB06F6F2
:10522C0015FA86F600283AD094F9301000F05CFBA1
:10523C00A06A036840219B6898470127B542A06A81
:10524C0024D01F2F0CD900F056FB94F93010A06A13
:10525C0000F04AFBA06A036840219B68984701272D
:10526C00A06A15F8011B036801379B689847FFB2C9
:10527C00E4E7606A18B104F1380100F033FD94F9E9
:10528C003600002180B201F01EF8B2E700F033FBCB
:10529C00A06A78B3E16CBDE8F84300F017BB94F951
:1052AC003500012180B201F00EF8B542F0D0606AF1
:1052BC0015F8019B18B1494600F082FDF5E7082767
:1052CC004FF0800894F9330009EA080180B200F02D
:1052DC00FAFF94F93400012180B200F0F4FF94F944
:1052EC003400002180B200F0EEFF013F4FEA580875
:1052FC00E8D1DAE794F93600012180B200F0E3FF3F
:10530C00606A18B1BDE8F84300F0D3BCBDE8F8837F
:10531C00F06F0D0008B5024B1B685B6C019308BD68
:10532C004802030008B5024B1B685B68019308BD7B
:10533C001802030008B5024B1B68DB68019308BD1B
:10534C001802030008B5024B1B685B69019308BD8A
:10535C001802030008B5024B1B689B6D019308BD36
:10536C001802030008B5024B1B685B6E019308BD65
:10537C001802030008B5024B1B689B68019308BD1B
:10538C002C02030008B5024B1B68DB68019308BDB7
:10539C002C02030008B5024B1B681B69019308BD66
:1053AC002C02030008B5024B1B685B69019308BD16
:1053BC002C02030008B5024B1B681B68019308BD47
:1053CC002802030008B5024B1B68DB68019308BD7B
:1053DC002802030008B5024B1B689B69019308BDAA
:1053EC002802030008B5024B1B68DB69019308BD5A
:1053FC002802030008B5024B1B681B6A019308BD09
:10540C002802030008B5024B1B685B6A019308BDB8
:10541C002802030008B5024B1B689B6A019308BD68
:10542C002802030008B5024B1B68DB6A019308BD18
:10543C002802030008B5024B1B681B6B019308BDC7
:10544C002802030008B5024B1B685B6B019308BD77
:10545C002802030008B5024B1B681B6C019308BDA6
:10546C002802030008B5024B1B685B69019308BD59
:10547C006402030008B5024B1B689B68019308BDCE
:10548C006802030008B5024B1B68DB68019308BD7A
:10549C006802030008B5024B1B681B68019308BD2A
:1054AC003002030008B5024B1B685B69019308BD11
:1054BC003002030008B5024B1B68DB69019308BD81
:1054CC003002030008B5024B1B681B6A019308BD30
:1054DC003002030008B5024B1B685B6A019308BDE0
:1054EC003002030008B5024B1B68DB6B019308BD4F
:1054FC003002030008B5024B1B681B6C019308BDFE
:10550C003002030008B5024B1B685B6C019308BDAD
:10551C003002030008B5024B1B681B68019308BDE1
:10552C003C02030008B5024B1B68DB68019308BD05
:10553C003C02030008B5024B1B681B69019308BDB4
:10554C003C02030008B5024B1B685B69019308BD64
:10555C003C02030008B5024B1B689B69019308BD14
:10556C003C02030008B5024B1B68DB69019308BDC4
:10557C003C02030008B5024B1B681B6A019308BD73
:10558C003C02030008B5024B1B689B6A019308BDE3
:10559C003C02030008B5024B1B681B68019308BD55
:1055AC004C02030008B5024B1B685B68019308BDF5
:1055BC004C02030008B5024B1B681B69019308BD24
:1055CC004C02030008B5024B1B685B69019308BDD4
:1055DC004C02030008B5024B1B689B69019308BD84
:1055EC004C02030008B5024B1B68DB69019308BD34
:1055FC004C02030008B5024B1B681B6A019308BDE3
:10560C004C02030008B5024B1B685B6B019308BD91
:10561C006002030008B5024B1B681B68019308BDB0
:10562C002002030008B5024B1B685B68019308BDA0
:10563C002002030008B5024B1B685B69019308BD8F
:10564C002002030008B5024B1B689B6D019308BD3B
:10565C002002030008B5034B1B68D3F88830019374
:10566C0008BD00002002030008B5034B1B68D3F8EB
:10567C009430019308BD00002002030008B5024BD2
:10568C001B689B68019308BD4402030008B5024BDC
:10569C001B685B69019308BD4402030008B5024B0B
:1056AC001B681B6B019308BD4402030008B5024B39
:1056BC001B68DB6B019308BD4402030008B5024B69
:1056CC001B685B68019308BD4002030008B5024BE0
:1056DC001B689B68019308BD4002030008B5024B90
:1056EC001B68DB68019308BD4002030008B5024B40
:1056FC001B681B69019308BD4002030008B5024BEF
:10570C001B685B69019308BD4002030008B5024B9E
:10571C001B689B69019308BD4002030008B5024B4E
:10572C001B68DB69019308BD4002030008B5024BFE
:10573C001B681B6A019308BD4002030008B5024BAD
:10574C001B681B6B019308BD4002030008B5024B9C
:10575C001B685B6B019308BD4002030008B5024B4C
:10576C001B681B6C019308BD4002030008B5024B7B
:10577C001B685B6C019308BD4002030008B5024B2B
:10578C001B681B68019308BD1C02030008B5024B83
:10579C001B685B68019308BD1C02030008B5024B33
:1057AC001B685B6A019308BD1C02030008B5024B21
:1057BC001B685B6C019308BD1C0203000021FFF702
:1057CC0039BF0000024800230360FFF7A3BD00BFF0
:1057DC00B4E50320002240681146FFF7A7BF002262
:1057EC0040681146FFF7B2BF40680022FFF7A6BF22
:1057FC004068002281F00101FFF790BF0023406850
:10580C001A461946FFF782BF002340681A4619460C
:10581C00FFF774BF002240681146FFF767BF0022F4
:10582C0040681146FFF752BF406800220221FFF783
:10583C0055BF002340681A46FFF740BF024B0322B6
:10584C005A60024A1A607047B8E5032000700D00D8
:10585C007047F8B5064615460C468F18BC4206D064
:10586C00336814F8011B9B6830469847F6E72846C6
:10587C00F8BD007C0022FFF7BDBD007C0021FFF7C6
:10588C00C1BD007C0021FFF7C5BD007C0021FFF7E6
:10589C00C9BD007C0021FFF7CDBD10B51421044615
:1058AC0000F07AFD204610BD10B54FF47A73044613
:1058BC0008460021C4E90113034B236020741146F0
:1058CC00FFF7C8FD204610BD3C700D00007C002287
:1058DC00FFF770BD0023007C1A461946FFF772BD16
:1058EC00007C0022FFF776BDC9B2FFF7F9BF007C40
:1058FC000022FFF777BD0121FFF7F9BF704710B504
:10590C001821044600F048FD204610BDF0B5037D7B
:10591C00062B8DB00E4600F104074FF0000412D098
:10592C0000F1080515F8011D0A22304600F04BF96C
:10593C00AF42044419D0002CF4D02E21304600F094
:10594C0033F90444EEE72F236A4639460A208DF8D2
:10595C000040FFF787FD684600F062FD33680246A1
:10596C00DB68694630469847044620460DB0F0BDCA
:10597C0010B5054B0446112240F8043B002100F001
:10598C0023FD204610BD00BF64700D000346074A7E
:10599C0010B543F8042B01F1100251F8044B43F8F5
:1059AC00044B9142F9D10A781A7010BD64700D0045
:1059BC0010B59DF8084044EA032343EA024242EA48
:1059CC00016104234160037510BD13B5CB780093BE
:1059DC008B784A780978FFF7EBFF02B010BD000016
:1059EC00014B024A1A607047C0E5032070700D002D
:1059FC00002340681A46FFF761BE4068002202216E
:105A0C00FFF76CBE002240681146FFF75FBE002214
:105A1C0040681146FFF76ABE002340681A461946D3
:105A2C00FFF76CBE002340681A461946FFF76EBE9E
:105A3C0040680021FFF792BE40680021FFF796BE38
:105A4C004068002281F00101FFF768BE4068002227
:105A5C00FFF774BE002240681146FFF777BE0022A4
:105A6C0040681146FFF762BE2DE9F043002495B063
:105A7C0016460D460746FFF77BFF214618220EA857
:105A8C00009400F0A1FC4023CDE90C3421466B4678
:105A9C000CAA3046FFF7F6FC0446002846D1024615
:105AAC0001216868FFF722FE0221804622466868C1
:105ABC00FFF71CFE009E81462146002E36D00029A1
:105ACC0034D17368022B03D00A2B0BD0F669F4E7A0
:105ADC00B8F1000F04D0716938460431FFF775FF37
:105AEC004146F3E7B9F1000F01D14946EEE774697D
:105AFC00102201A800F068FC06238DF8143001ADCB
:105B0C0004F108031834186859682A4603C208338C
:105B1C00A3421546F7D101A906A807ADFFF736FF3A
:105B2C000FCD3C1D0FC42B682370DEE70098FFF7E8
:105B3C00A1FC384615B0BDE8F0830000024B034AC7
:105B4C001A6000225A607047C4E503207C700D0077
:105B5C00F8B506460D468F180024BD420CD03368AC
:105B6C0015F8011B9B6830469847031E01DB1C444B
:105B7C00F3E7002C08BF1C462046F8BD13B50446BD
:105B8C00084659B1019100F04BFC23680199DB6880
:105B9C000246204602B0BDE81040184702B010BDC6
:105BAC0008B5FFF7EBFF08BD03689B68184738B5CD
:105BBC000D210546FFF7F8FF0A2104462846FFF79A
:105BCC00F3FF204438BD30B58BB000238DF8243062
:105BDC00012A98BF0A2209AC0D46B1FBF2F101FB78
:105BEC00125303F0FF03092B94BF30333733DBB26E
:105BFC00AA4204F8013DEFD92146FFF7BFFF0BB0D5
:105C0C0030BD2DE9F04186B000AF05460E46381D7B
:105C1C00142114463B60FFF7C1FD13280ED8391D23
:105C2C002846FFF7ABFF04461EB12846FFF7BFFF1F
:105C3C00044420461837BD46BDE8F08100F1080346
:105C4C0023F00703E846ADEB030D2246411C3B68ED
:105C5C006846FFF7A3FD69462846FFF78FFF044609
:105C6C00C546E1E7014B00229A607047CCE5032062
:105C7C000021FFF73FBC0021FFF744BC10B50446E0
:105C8C0008462170FFF716FC00236360204610BD08
:105C9C0010B504460078FFF7EBFF48B920784FF6B3
:105CAC00FF71FFF7F7FB2078BDE81040FFF7E3BF6B
:105CBC0010BD0078FFF7DFBF400830B51860002436
:105CCC0018688842E5B206D90134082C02D0400885
:105CDC001860F5E70725024B5B5D137030BD00BF04
:105CEC00B0700D002DE9F04306468FB000780C46DD
:105CFC00FFF7BEFF00281BDB35781422002109A812
:105D0C0000F062FB0B23002209A92846ADF82430D1
:105D1C00FFF7E0FB9DF82D3013B19DF82C5055B1D9
:105D2C000027B946B846012523795DB1C3B10020DF
:105D3C000FB0BDE8F083DDF830809DF834909DF80D
:105D4C003570F1E7002B35D1A368434508D18DF8A8
:105D5C0020908DF82170BDF82020A3899A42E6D0BE
:105D6C000023A1688DF80F300A9804AB0DF10F02D7
:105D7C00FFF7A2FF217985B989B9A36843450ED3F2
:105D8C008DF820908DF82170BDF82020A3899A42BF
:105D9C0005D1049B434502D1C9E70029F9D1002361
:105DAC000193637B00939DF80F20237B3078FFF7E2
:105DBC0099FBBCE7CDE900552B462A460121F5E7B6
:105DCC0008B50078FFF76EFBC0B208BD054B022288
:105DDC001A60054B054A9A600020186098809871EB
:105DEC00FFF720BCE8E50320DCE503200000FFFF03
:105DFC0008B50020FFF752FC28B1FFF747FC80F0F4
:105E0C000100C0B208BD0120FCE710B50020FFF76F
:105E1C00A1FA0446A0B9FFF7FDFB012810D12046DA
:105E2C00FFF710FC60B9FFF7E3FF10B9FFF726FC92
:105E3C00F9E7FFF7DDFFBDE810400020FFF78ABA55
:105E4C00204610BD1FB5FFF7E0FF10220021684669
:105E5C0000F0BAFA00216846FFF784FA009805B002
:105E6C005DF804FB024B1A68024B1A60704700BFC6
:105E7C00E4E40320ECE5032070474174704770475D
:105E8C0008B5007CFFF77EFB20EAE07008BD08B582
:105E9C00007CFFF74FFB20EAE07008BD08B5007CE2
:105EAC00FFF758FB40EAE07008BD08B5007CFFF72F
:105EBC0049FB40EAE07008BD007CFFF753BB37B5E7
:105ECC00457C04462DB1207C03B0BDE83040FFF783
:105EDC0029BB007C0191FFF755FB00280199F2DCEE
:105EEC00284603B030BD10B51421044600F054FA16
:105EFC00204610BD10B54FF0000C04460846114664
:105F0C004FF47A72C4E901C2044A2260012220745F
:105F1C0062741A46FFF7FEFA204610BDDC700D00C5
:105F2C0013B50D4C2178BFF35B8F11F0010110D12B
:105F3C0020460191FEF7B6F8019950B1074B084A7B
:105F4C000848FFF7D7FF2046FEF7B1F8064800F0E7
:105F5C0027FA044802B010BDF0E5032078E60320D0
:105F6C00F4E50320FCE603208B5E0D0041747047C2
:105F7C007047704708B50021007CFFF72BFB40EA07
:105F8C00E07008BD08B50121007CFFF723FB40EA57
:105F9C00E07008BD08B5007CFFF714FB20EAE07048
:105FAC0008BD08B5007CFFF705FB20EAE07008BDD2
:105FBC0013B50446007C0191FFF704FB00280199FE
:105FCC0001DC607C20B1207CFFF70CFB20EAE07048
:105FDC0002B010BD007CFFF70DBB10B514210446B8
:105FEC0000F0DAF9204610BD10B54FF47A73044670
:105FFC0008460021C4E90113044B236001232074DB
:10600C0063741146FFF7C6FA204610BD0C710D00E3
:10601C00007C0022FFF7C6BA10B5142204460021FA
:10602C0000F0D2F9204610BD10B50F4C88B003A873
:10603C00FFF7F2FF2178BFF35B8F11F001010FD155
:10604C0020460191FEF72EF8019948B103AA0748A2
:10605C00FFF7CAFF2046FEF72AF8054800F0A0F922
:10606C00024808B010BD00BF10E7032014E703205E
:10607C007D5F0D00002240681146FFF737BB002200
:10608C0040681146FFF752BB002240681146FFF7EB
:10609C005DBB40680022FFF751BB4068002281F0D5
:1060AC000101FFF73BBB002340681A461946FFF776
:1060BC002DBB002340681A461946FFF71FBB002270
:1060CC0040681146FFF702BB406800220221FFF72F
:1060DC0005BB002340681A46FFF7F0BA024B0422B6
:1060EC005A60024A1A60704728E703203C710D0081
:1060FC00014B1860704700BFE8E4032008B50B4B58
:10610C0043B1FFF791FF03681B699847002801DD35
:10611C00AFF30080064B43B1FFF702FF03681B6926
:10612C009847002801DDAFF3008008BD0000000097
:10613C000000000008B5FFF7E1FFFFF703F9014B82
:10614C00186008BD38E703200548064A064908B51B
:10615C00121A00F02BF9054B054A1A6008BD00BF56
:10616C0000F4032004F40320A0710D0000F40320BC
:10617C001E1C279A07B5002300931A466FF077016F
:10618C00FFF772FA03B05DF804FB000007B5438813
:10619C000A2B08D0502B0BD1094B1B684BB103B009
:1061AC005DF804EB1847FFF7E5FF03B05DF804FB5F
:1061BC00002300931A466FF07701FFF755FAF4E7C6
:1061CC0034E7032010B512480021FFF7EFFA114B0A
:1061DC001A68114B9A42114B0CBF012200221A7003
:1061EC0001D0FFF7B1FFFFF79DF8044600F0F4F87B
:1061FC000B4B13B12046AFF3008000210848FFF78A
:10620C0055FABDE8104007480021FFF723BA00BF3C
:10621C00FD600D0000F403201E1C279A30E70320BC
:10622C000000000099610D00232813B502D900204D
:10623C0002B010BDA0F10B03022B1AD8174C217819
:10624C00BFF35B8F11F001010BD120460191FDF7DB
:10625C0029FF019928B11248FFF710FD2046FDF7E0
:10626C0026FF0F4B1878FFF72DF90028DFD10120FE
:10627C00DEE7012809D800F06BF80021007CFFF75D
:10628C00E1F880F00100C0B2D2E709380128EED85D
:10629C00FFF746FE007CFFF76DF9F2E7A8E5032057
:1062AC00ACE50320232838B504460D460AD8FF294F
:1062BC0008D0FFF7B9FF28B129462046BDE8384081
:1062CC00FFF758B838BD38B504460D46FFF75AF8F5
:1062DC00FF2810D0062804D84D2323FA00F0C3075A
:1062EC0009D42046FFF7A0FF28B129462046BDE877
:1062FC003840FFF74FB838BD10B50446FFF742F8E9
:10630C00031FDBB2012B08D92046FFF78DFF20B10C
:10631C002046BDE81040FFF745B8002010BD70477F
:10632C0038B5002320254380142304460380856060
:10633C0005610649284600F031F80449606028469A
:10634C0000F02CF8E060204638BD00BF70710D00E5
:10635C0030B50E4D2978BFF35B8F11F0010487B077
:10636C0011D12846FDF79EFE68B101A8FFF7D8FFB2
:10637C0001AA21460648FFF797FA2846FDF797FE33
:10638C00044800F00DF8024807B030BD3CE703208C
:10639C0040E703202B630D00FDF777BEFDF773BEBE
:1063AC00002301461A46184600F042B80A449142AE
:1063BC0000F1FF3300D1704710B511F8014B03F811
:1063CC00014F9142F9D110BD02440346934200D1D2
:1063DC00704703F8011BF9E738B50D4B1D68AB6B23
:1063EC0004467BB91820FFF7C9F90A4A0A4BA8637F
:1063FC00C0E90023094B83600B2383810122002316
:10640C00C0E90423AB6B00221C615A6138BD00BF8C
:10641C00E8E403200E33CDAB34126DE6ECDE050060
:10642C00034613F8012B002AFBD1181A01387047C8
:10643C002DE9F843DFF8B8800646D8F800001F466F
:10644C000D46914600F056F8254B1C6834B9254C86
:10645C001C60254B13B11B68C4F8883063681F2B74
:10646C0007DDD8F8000000F047F84FF0FF30BDE82A
:10647C00F8834EB3D4F8880088B91C4B23B9D8F8EC
:10648C00000000F038F8F0E74FF48470FFF776F96D
:10649C000028F4D00023C0E94033C4F888006368B6
:1064AC0040F8239001229A4000EB8301D0F8003190
:1064BC001343022EC0F80031C1F8807002BFD0F82F
:1064CC0004311A43C0F804216368D8F800005A1C40
:1064DC000233626044F8235000F00EF80020C6E747
:1064EC00E0E7032054E703200000000089570D006B
:1064FC004CE5032070477047704700001D400D00AD
:10650C0059400D0081400D0085400D000000000039
:10651C0000000000003E5B4F5B3E3E6B4F6B3E1C31
:10652C003E7C3E1C183C7E3C181C577D571C1C5E48
:10653C007F5E1C00183C1800FFE7C3E7FF0018241F
:10654C001800FFE7DBE7FF30483A060E26297929C9
:10655C0026407F050507407F05253F5A3CE73C5AFE
:10656C007F3E1C1C08081C1C3E7F14227F22145FDB
:10657C005F005F5F06097F017F006689956A606036
:10658C0060606094A2FFA29408047E040810207E30
:10659C00201008082A1C08081C2A08081E101010B5
:1065AC00100C1E0C1E0C30383E3830060E3E0E06FB
:1065BC00000000000000005F00000007000700144E
:1065CC007F147F14242A7F2A12231308646236490D
:1065DC005620500008070300001C224100004122F5
:1065EC001C002A1C7F1C2A08083E080800807030FA
:1065FC000008080808080000606000201008040269
:10660C003E5149453E00427F40007249494946216E
:10661C0041494D331814127F1027454545393C4AE2
:10662C0049493141211109073649494936464949F9
:10663C00291E000014000000403400000008142241
:10664C0041141414141400412214080201590906AF
:10665C003E415D594E7C1211127C7F494949363EB0
:10666C00414141227F4141413E7F494949417F0996
:10667C000909013E414151737F0808087F00417FA1
:10668C0041002040413F017F081422417F4040409F
:10669C00407F021C027F7F0408107F3E4141413E37
:1066AC007F090909063E4151215E7F0919294626B9
:1066BC004949493203017F01033F4040403F1F20BD
:1066CC0040201F3F4038403F631408146303047894
:1066DC0004036159494D43007F41414102040810B4
:1066EC0020004141417F04020102044040404040EF
:1066FC00000307080020545478407F28444438385D
:10670C0044444428384444287F38545454180008CE
:10671C007E090218A4A49C787F0804047800447DA8
:10672C0040002040403D007F1028440000417F4045
:10673C00007C047804787C08040478384444443899
:10674C00FC1824241818242418FC7C080404084879
:10675C005454542404043F44243C4040207C1C20CA
:10676C0040201C3C4030403C44281028444C909025
:10677C00907C4464544C440008364100000077007F
:10678C0000004136080002010204023C2623263C8C
:10679C001EA1A161123A4040207A38545455592117
:1067AC0055557941225454784221555478402054FF
:1067BC005579400C1E52721239555555593954544D
:1067CC00545939555454580000457C410002457DBC
:1067DC00420001457C407D1211127DF0282528F0E5
:1067EC007C545545002054547C547C0A097F493212
:1067FC00494949323A4444443A324A4848303A4189
:10680C0041217A3A42402078009DA0A07D3D424231
:10681C00423D3D4040403D3C24FF2424487E4943BA
:10682C00662B2FFC2F2BFF0929F620C0887E09032D
:10683C0020545479410000447D413048484A323854
:10684C004040227A007A0A0A727D0D19317D262980
:10685C00292F28262929292630484D402038080878
:10686C00080808080808382F10C8ACBA2F102834AC
:10687C00FA00007B000008142A142222142A14089F
:10688C005500550055AA55AA55AAFF55FF55FF00AE
:10689C000000FF00101010FF00141414FF00101063
:1068AC00FF00FF1010F010F0141414FC001414F777
:1068BC0000FF0000FF00FF1414F404FC1414171064
:1068CC001F10101F101F1414141F00101010F000B4
:1068DC000000001F101010101F10101010F01000EE
:1068EC000000FF101010101010101010FF100000FE
:1068FC0000FF140000FF00FF00001F10170000FC39
:10690C0004F414141710171414F404F40000FF000A
:10691C00F714141414141414F700F7141414171493
:10692C0010101F101F141414F4141010F010F00099
:10693C00001F101F0000001F14000000FC140000BA
:10694C00F010F01010FF10FF141414FF141010109E
:10695C001F00000000F010FFFFFFFFFFF0F0F0F051
:10696C00F0FFFFFF0000000000FFFF0F0F0F0F0FE5
:10697C003844443844FC4A4A4A347E020206060231
:10698C007E027E0263554941633844443C04407E98
:10699C00201E2006027E020299A5E7A5991C2A4911
:1069AC002A1C4C7201724C304A4D4D30304878489C
:1069BC0030BC625A463D3E494949007E0101017E88
:1069CC002A2A2A2A2A44445F444440514A444040DB
:1069DC00444A51400000FF0103E080FF000008081A
:1069EC006B6B083612362436060F090F060000189A
:1069FC00180000001010003040FF0101001F0101C1
:106A0C001E00191D1712003C3C3C3C00000000000D
:106A1C00000000000000000000000000000000006A
:106A2C00A1480D005D5B0D009D400D00A9420D00BD
:106A3C00AB420D00DD420D00B9420D00CB420D0002
:106A4C00ED410D00A9420D00D5440D004F440D0041
:106A5C00F5420D0033430D006D430D00B3430D00A3
:106A6C0051440D00CF430D0064656661756C742054
:106A7C00004D5342004C5342003C535049536574F3
:106A8C0074696E67732064656661756C743E003C56
:106A9C0053504953657474696E677320257325755B
:106AAC00202573204D4F444525753E000000000005
:106ABC0000000000D1490D00A3490D00A5490D00AF
:106ACC000000000000018000000000000000000039
:106ADC00038000000000000000000007C000000060
:106AEC0000000000000007C00000000000000000D3
:106AFC00000FC00000000000000000001FE00000BC
:106B0C00000000000000001FE0000000000000007A
:106B1C0000003FE00000000000000000003FF0001B
:106B2C0000000000000000007FF0000000000000EA
:106B3C00001FF87FF0000000000000003FFE7FF017
:106B4C00000000000000003FFF7FF000000000008C
:106B5C0000001FFFFBE0000000000000000FFFF929
:106B6C00FFC00000000000000FFFF9FFF80000005C
:106B7C0000000007FFF1FFFF00000000000003FC15
:106B8C0073FFFF80000000000001FE3FFFFF80004C
:106B9C000000000000FF1E0FFF00000000000000BE
:106BAC007FFE1FFC000000000000003FFFFFF8000C
:106BBC000000000000000FDFFFE0000000000000FC
:106BCC00001F19FFC0000000000000003F3CFF0048
:106BDC00000000000000007E7CF8000000000000B7
:106BEC0000007FFE7C0000000000000000FFFFFCA6
:106BFC000000000000000000FFFFFE00000000008D
:106C0C00000000FFFFFE0000000000000001FFEF8D
:106C1C00FE0000000000000001FFCFFE000000009D
:106C2C0000000003FF07FE0000000000000003FC52
:106C3C0007FE0000000000000003F003FE0000004F
:106C4C0000000000018000FE0000000000000000B9
:106C5C0000007E000000000000000000003E00006C
:106C6C0000000000000000000C0000000000000705
:106C7C008000FC000003C0000000078001FC000045
:106C8C0003C0000000078001FC000003C0000000EE
:106C9C00078001E00000001E000000078001E000FA
:106CAC0000001E007FE3F79FF9FDE7787BDFC0FF54
:106CBC00F7FFBFFDFDFF787BDFC0FFF7FFBFFDFDDA
:106CCC00FF787BDFC0F0F787BC3DE1FF787BDE000F
:106CDC00F0F787BC3DE1F0787BDE0000F787803D64
:106CEC00E1E0787BDE007FF7879FFDE1E0787BDEDB
:106CFC0000FFF787BFFDE1E0787BDE00F0F787BC93
:106D0C003DE1E0787BDE00F0F787BC3DE1E0787B8D
:106D1C00DE00F0F787BC3DE1E0787BDE00FFF7FF9B
:106D2C00BFFDE1E07FFBDFC0FFF7FFBFFDE1E07FD0
:106D3C00FBDFC07CF3F39F3DE1E03E7BCFC0000066
:106D4C00000000000000000000FFFFFFFFFFFFFF3E
:106D5C00FFFFFFC0FFFFFFFFFD68DB111A31C0FF13
:106D6C00FFFFFFFD2B5AFB6AEFC0FFFFFFFFFD4B40
:106D7C005B3B1A33C0FFFFFFFFFD6B5BDB6AFDC0A3
:106D8C000000600000000000000000000000000097
:106D9C0000E0000000000000000000000000000106
:106DAC00E00000000000000000000000000001F006
:106DBC000000000000000000000000000003F000D4
:106DCC0000000000000000000000000007F00000C0
:106DDC00000000000000000000000007F8000000A8
:106DEC00000000000000000000000FF8000000038D
:106DFC00C0007E000001E0007F0FF800000003C01F
:106E0C0000FE000001E000FFEFF800000003C000EE
:106E1C00FE000001E000FFFFF800000003C000F0DE
:106E2C000000000F007FFE7FC0000003C000F000D8
:106E3C0000000F003FFE7FF83FF1FBCFFCFEF3BCE0
:106E4C003DEFE01FFE7FFF7FFBFFDFFEFEFFBC3D43
:106E5C00EFE01FC6FFFF7FFBFFDFFEFEFFBC3DEF39
:106E6C00E00FE3C7FE787BC3DE1EF0FFBC3DEF00F6
:106E7C0007FF87FC787BC3DE1EF0F83C3DEF00017A
:106E8C00FFFFF0007BC3C01EF0F03C3DEF0001F3B0
:106E9C007FE03FFBC3CFFEF0F03C3DEF0003E33F50
:106EAC00807FFBC3DFFEF0F03C3DEF0007E73C00CA
:106EBC00787BC3DE1EF0F03C3DEF0007FFBE007890
:106ECC007BC3DE1EF0F03C3DEF0007FFFE00787B3D
:106EDC00C3DE1EF0F03C3DEF000FFFFE007FFBFF1A
:106EEC00DFFEF0F03FFDEFE00FFFFF007FFBFFDF69
:106EFC00FEF0F03FFDEFE00FF9FF003E79F9CF9E79
:106F0C00F0F01F3DE7E01FF1FF0000000000000063
:106F1C0000000000001F80FF007FFFFFFFFFFFFF4E
:106F2C00FFFFFFE01C007F007FFFFFFFFEB46D88BA
:106F3C008D18E000001F007FFFFFFFFE95AD7DB5B3
:106F4C0077E000000F007FFFFFFFFEA5AD9D8D19C0
:106F5C00E0000006007FFFFFFFFEB5ADEDB57EE063
:106F6C000000000000000000254A0D003D4A0D0005
:106F7C00A1480D005D5B0D00514A0D00A9420D00AA
:106F8C00AB420D00DD420D00B9420D00CB420D00AD
:106F9C00ED410D00A9420D00D5440D000B4C0D0028
:106FAC009F510D0051510D006D430D00B3430D0069
:106FBC0051440D00CF430D000080C0E0F0F8FCFE02
:106FCC00000103070F1F3F7FAED580A8D300408D73
:106FDC002000A1C8DB40A4A62EAFDA02818FDA1202
:106FEC0081DA02812200FF21000000000000000075
:106FFC00000000003F580D0035580D002B580D00B7
:10700C0021580D0015580D0009580D003D5A0D0062
:10701C00455A0D00FD570D00F5570D00EB570D00AF
:10702C00E1570D00755A0D00000000000000000033
:10703C005D580D00A7580D007F580D005F580D00CE
:10704C0087580D008F580D0097580D009F580D0054
:10705C00000000000000000019590D0009590D0036
:10706C000B590D0061707000000000000000000062
:10707C00FD590D00075A0D00115A0D001B5A0D0039
:10708C00255A0D00315A0D003D5A0D00455A0D0080
:10709C004D5A0D00595A0D00615A0D006B5A0D00D6
:1070AC00755A0D00000810182028303825592D2548
:1070BC006D2D25645425483A254D3A2553257A00E3
:1070CC0061736374696D65000000000000000000CE
:1070DC00855E0D00F35E0D00CB5E0D005D5B0D005B
:1070EC009B5E0D00B75E0D00A95E0D00C55E0D0028
:1070FC00875E0D008D5E0D0000000000000000009A
:10710C007F5F0D00E75F0D00BD5F0D005D5B0D0047
:10711C00AF5F0D00815F0D00915F0D00E15F0D0011
:10712C00A15F0D00795F0D00000000000000000061
:10713C00DF600D00D5600D00CB600D0081600D008F
:10714C00BF600D00B3600D003D5A0D00455A0D0097
:10715C00A7600D009F600D0095600D008B600D0009
:10716C00755A0D0000000000B9410D00D1570D00FB
:10717C0049580D00ED590D00495B0D00715C0D0077
:10718C00D95D0D00715E0D00E9600D00000000007E
:04719C0000000000EF
:0471A00000000000EB
:1071A4001100000002000000CC700D00ECE403208C
:1071B40000000000000000000000000000000000CB
:1071C40000000000000000000000000000000000BB
:1071D40000000000000000000000000000000000AB
:1071E400000000000000000000000000000000009B
:1071F400000000000000000000000000000000008B
:10720400000000000000000000000000000000007A
:04721400E5E7032087
:10721800FFFFFFFF00000102030405060708090A33
:107228000B0C0D0E0F101112131415161718191A2E
:087238001B1C1D1E1F20280075
:047240007856341236
:04000003D000401CCD
:00000001FF
